:020000040800F2
:10A0000098FD02204DA20008151F010811FB000851
:10A010005D1D0108D1AA0008B53F01085FA2000834
:10A02000000000000000000000000000A928010856
:10A03000EDAE000800000000A9250108C1280108B4
:10A0400069A2000869A2000869A2000869A20008C4
:10A0500069A2000869A2000869A2000869A20008B4
:10A0600069A2000869A2000869A2000869A20008A4
:10A0700069A2000869A2000869A2000869A2000894
:10A0800069A2000869A2000869A2000869A2000884
:10A0900069A2000869A2000869A2000869A2000874
:10A0A00069A2000869A2000869A2000869A2000864
:10A0B0000000000069A2000869A2000869A2000867
:10A0C00069A2000869A2000869A2000869A2000844
:10A0D00069A2000869A2000869A2000869A2000834
:10A0E00069A2000869A200082D29010869A20008D8
:10A0F00069A2000869A2000869A2000869A2000814
:10A1000069A200083929010869A2000869A20008AB
:10A1100069A2000869A2000869A2000869A20008F3
:10A1200069A2000869A2000869A2000869A20008E3
:10A1300069A200089D3F010869A20008A93F010823
:10A1400069A20008C52B010869A2000869A20008DD
:10A1500069A2000869A2000869A2000869A20008B3
:10A1600069A2000869A2000869A2000869A20008A3
:10A1700069A2000869A2000869A2000869A2000893
:10A1800069A2000869A2000869A2000869A2000883
:10A1900069A2000869A2000869A2000869A2000873
:10A1A00069A2000869A2000869A2000869A2000863
:10A1B00069A200080000000069A2000869A2000866
:10A1C00069A200080000000069A2000869A2000856
:10A1D00069A2000869A2000869A2000869A2000833
:10A1E00069A2000869A2000869A2000869A2000823
:10A1F000000000000000000069A2000869A2000839
:10A2000069A2000869A2000869A2000869A2000802
:10A2100069A2000869A2000869A2000869A20008F2
:10A2200069A2000869A2000869A2000869A20008E2
:10A2300069A2000869A20008DFF80CD000F080FADB
:10A24000004800478DF5030898FD02200748804725
:10A2500007480047FEE7FEE7FEE7FEE7FEE7FEE70A
:10A26000FEE7FEE7FEE7FEE7FEE70000E128010863
:10A2700039A200082DE9F05F0546002092469B4672
:10A2800088460646814640241BE02846414647460C
:10A29000224600F0FCF953465A46C01A914110D3A9
:10A2A00011461846224600F0E3F92D1A67EB010823
:10A2B0004F4622460120002100F0DAF917EB000991
:10A2C0004E41201EA4F10104DFDC484631462A46F7
:10A2D0004346BDE8F09F10B5431A934209D2831854
:10A2E000881803E010F8011D03F8011D521EF9D271
:10A2F00010BD40EA01039B0703D009E008C9121F03
:10A3000008C0042AFAD203E011F8013B00F8013B2F
:10A31000521EF9D210BDD2B201E000F8012B491E45
:10A32000FBD270470022F6E710B513460A460446F2
:10A330001946FFF7F0FF204610BD30B505462A4606
:10A340000B4612F8010B13F8014B08B1A042F8D0EC
:10A350001CB1002802D06D1CF1E7284630BD10B5B5
:10A36000044604E00B7800F8013B03B1491C521E7F
:10A37000F8D2204610BDCAB2401E10F8011F8A4212
:10A3800002D00029F9D100207047421C10F8011BAF
:10A390000029FBD1801A704710B5002200E0521C42
:10A3A000835C8C5CA34201D1002BF8D1D8B2E1B21E
:10A3B000401A10BD30B504460020034600E05B1C87
:10A3C000934203D2E05CCD5C401BF8D030BD034625
:10A3D00011F8012B00F8012B002AF9D1184670471B
:10A3E0002DE9F0410E460546002400E0641C285D7E
:10A3F00000F05DF90746305D00F059F9381A02D1D6
:10A40000295D0029F2D1BDE8F08100000FB400B54C
:10A410008DB010A909900B9000914FF0FF300A9079
:10A4200000200C9005480690054807906A4609A848
:10A430000F9900F057F90DB05DF814FB01A7000863
:10A440001FA700082DE9FF5F1D464FF0FF3BD5E930
:10A45000014691465F464FF00008A9697F1C0198AC
:10A460008847296A824688470028F6D1BAF1FF3F1B
:10A470000CD024F4C064002E19DD600614D5BAF1A6
:10A480002B0F09D0BAF12D0F0ED103E0584604B0BE
:10A49000BDE8F09F44F48064A9697F1C0198884757
:10A4A000761E8246002E02DDBAF1300F03D0B9F1DC
:10A4B000000F26D032E0A969761E44F400747F1C98
:10A4C000019888478246002E05DDBAF1780F06D044
:10A4D000BAF1580F03D0B9F1000F10D01EE0B9F156
:10A4E000000F02D0B9F1100F18D1A969761E24F41B
:10A4F00000747F1C019888478246102002E00820E3
:10A5000000E00A20814609E008FB0908A969761ED7
:10A5100044F400747F1C019888478246002E05DDB4
:10A520004946504600F0C9F80028EDDAE96901987B
:10A530008847A00502D46FF00100A8E7E00725D105
:10A54000600613D5600502D5C8F1000000E0404662
:10A5500029680A1D2A600968220501D5087015E0DE
:10A56000220701D5088011E008600FE02868011D6E
:10A5700029600068210502D580F8008006E02107E7
:10A5800002D5A0F8008001E0C0F8008038467EE7E0
:10A590002DE9FF5FD2E901A74FF0000891699946C4
:10A5A0001446DDF838B0464601988847054659EA12
:10A5B0000B0005D009E0A169761C01988847054683
:10A5C000216A284688470028F5D1681C03D05FEA35
:10A5D000CA7005D015E04FF0FF3004B0BDE8F09F21
:10A5E0002068011D2160D0F800800AE05FEACA708F
:10A5F00001D108F8015BA169761C7F1E019888478C
:10A600000546002F1ADD681C18D0B9F1000F0DD0D7
:10A61000E81705EBD060421120F01F0059F8221016
:10A620002A1A012090400142E0D107E0BBF1000F5F
:10A63000DCD1216A284688470028D7D0E1690198F3
:10A640008847BBF1000F07D1002E05DD5FEACA7015
:10A6500002D1002188F80010A068B84203DDBBF1E8
:10A66000000F03D017B16FF00100B6E73046B4E732
:10A67000202A04DB203A00FA02F1002070479140C2
:10A68000C2F1200320FA03F3194390407047202AB7
:10A6900004DB203A21FA02F00021704721FA02F38C
:10A6A000D040C2F120029140084319467047A0F102
:10A6B0004101192900D8203070473A2800D230389B
:10A6C00020F02002412A01D3A2F13700884201D3B1
:10A6D0004FF0FF30704700000268114413780160AA
:10A6E00018467047D1600449516104491162002144
:10A6F0001161114600F042B8D9A6000871A7000800
:10A70000426842B1016811F8013B23B1521EC0E911
:10A710000012184670470121C160881E70474268C8
:10A720005AB1C368016843B983688B4205D0491E9A
:10A73000521CC0E90012002070474FF0FF307047F4
:10A740001CB509480090094801900546009C06E0A8
:10A75000E06840F0010394E8070098471034AC42E9
:10A76000F6D3FFF76DFD000008FA040828FA040884
:10A77000C0B24FF4F05100F097B900002DE9F34F4B
:10A780008BB04FF0000801F10C000C464FF0010BAC
:10A7900046460DF1080A019062690121019890472F
:10A7A000051E2DD0252D2CD0216A8847C0B16269A5
:10A7B000012101989047216A88470028F7D1411E5E
:10A7C00062690198904700E0761CA1690B98884760
:10A7D000216A88470028F7D1E1690B988847DBE7B1
:10A7E000A1690B9888470746A84201D1761CD3E798
:10A7F000E1690B9888477F1C02D1B8F1000F6FD038
:10A8000046E1002762693D463946019890472A286B
:10A8100004D162690121019890470125DFF88492F3
:10A820006269012101989047A0F130010A290AD2FA
:10A830004F45E5DC07EB870100EB4107303FDFD4F4
:10A8400045F01005ECE7E90601D46FF000476C28ED
:10A850000AD04C2814D0682815D06A280DD0742846
:10A860001CD07A281AD01DE0626901210198904716
:10A870006C2802D045F0040514E045F002050DE017
:10A8800045F020050AE06269012101989047682897
:10A8900002D045F0080505E045F400656269012134
:10A8A00001989047C4E9015765283DD019DC582824
:10A8B0007AD00CDC452837D004DC252826D0412866
:10A8C00031D131E046282FD047282CD12CE05B280D
:10A8D00077D0612828D063287CD0642823D15AE01F
:10A8E000D0E06F2848D008DC66281DD067281BD030
:10A8F000692821D06E2816D127E0702845D073280A
:10A9000068D0752847D078280DD14DE0A1690B9803
:10A910008847054625283FF469AFE1690B988847C9
:10A920006D1C3FF46AAFB3E023466A466FF0010046
:10A930000B99AFF300809EE045F040006060A807EF
:10A9400023464FF0000236D43EE0E8077FF447AFDD
:10A950002068011D21600068290501D506701BE7EC
:10A96000290701D5068017E7A90703D5F117C0E924
:10A97000006111E706600FE745F040006060A8073E
:10A9800023464FF0080216D41EE040F60E0125EAD9
:10A990000100606016E045F040006060A8072346B3
:10A9A0004FF00A0207D40FE045F040006060A807AE
:10A9B00008D5234610226FF001000B99AFF30080F9
:10A9C00059E007E0234610226FF001000B99FFF7D2
:10A9D00039FD50E04FF000094F464B46632802D046
:10A9E0005B2806D040E0E80601D40120A0600127E2
:10A9F0003AE062690121019890475E2805D14FF045
:10AA000001096269494601989047216939B90021D5
:10AA10000A46534643F82120491C0829FADBB0B303
:10AA2000216969B9C11700EBD16253110AEB8301A7
:10AA300022F01F02821A01200B68904003430B6032
:10AA400062690121019890475D28E8D1B9F1000FB2
:10AA500009D00020514651F82020D24341F820204F
:10AA6000401C0828F7DB02AB224600976FF001007C
:10AA70000B99FFF78DFD00280CDA401C08D1BBF1C3
:10AA8000000F05D04FF0FF300DB0BDE8F08FFFE7AD
:10AA90004046F9E7E90701D108F1010806444FF003
:10AAA000000B79E6CCCCCC0C7F2801D9002208E041
:10AAB000064A02EB5002C007127800D1120902F0D8
:10AAC0000F02012090400840704700005CAB040872
:10AAD000FEE7000010B50FF2E4300FF2044142F23D
:10AAE000107238F039FC4FF22D00C0F6040040F02F
:10AAF00023F84FF47A703DF0C5FF4FF257104FF234
:10AB00005111C0F60400C0F604014FF47A7238F017
:10AB100023FC88B140F2CC704FF22311C2F2000046
:10AB2000C0F60401FFF709FC002800F081814EF611
:10AB30009D70C0F6040003E04EF67E70C0F604007F
:10AB400001213FF067FD4FF47A703DF09BFF4FF21B
:10AB500057104FF25111C0F60400C0F604014FF433
:10AB60007A7238F0F9FB88B140F2CC704FF22311C1
:10AB7000C2F20000C0F60401FFF7DFFB002800F07E
:10AB800057814EF69D70C0F6040003E04EF67E70CD
:10AB9000C0F6040002213FF03DFD4FF47A703DF015
:10ABA00071FF4FF257104FF25111C0F60400C0F67A
:10ABB00004014FF47A7238F0CFFB88B140F2CC70C8
:10ABC0004FF22311C2F20000C0F60401FFF7B5FBFB
:10ABD000002800F02D814EF69D70C0F6040003E0C1
:10ABE0004EF67E70C0F6040003213FF013FD4FF4D3
:10ABF0007A703DF047FF4FF257104FF25111C0F6F7
:10AC00000400C0F604014FF47A7238F0A5FB88B155
:10AC100040F2CC704FF22311C2F20000C0F60401E2
:10AC2000FFF78BFB002800F003814EF69D70C0F605
:10AC3000040003E04EF67E70C0F6040004213FF0ED
:10AC4000E9FC4FF47A703DF01DFF4FF257104FF2C0
:10AC50005111C0F60400C0F604014FF47A7238F0C6
:10AC60007BFB88B140F2CC704FF22311C2F200009E
:10AC7000C0F60401FFF761FB002800F0D9804EF612
:10AC80009D70C0F6040003E04EF67E70C0F604002E
:10AC900005213FF0BFFC4FF47A703DF0F3FE4FF218
:10ACA00057104FF25111C0F60400C0F604014FF4E2
:10ACB0007A7238F051FB88B140F2CC704FF2231118
:10ACC000C2F20000C0F60401FFF737FB002800F0D5
:10ACD000AF804EF69D70C0F6040003E04EF67E7025
:10ACE000C0F6040006213FF095FC4FF47A703DF069
:10ACF000C9FE4FF257104FF25111C0F60400C0F6D2
:10AD000004014FF47A7238F027FB88B140F2CC701E
:10AD10004FF22311C2F20000C0F60401FFF70DFB51
:10AD2000002800F085804EF69D70C0F6040003E018
:10AD30004EF67E70C0F6040007213FF06BFC4FF426
:10AD40007A703DF09FFE4FF257104FF25111C0F64E
:10AD50000400C0F604014FF47A7238F0FDFA88B1AD
:10AD600040F2CC704FF22311C2F20000C0F6040191
:10AD7000FFF7E3FA00285BD04EF69D70C0F60400A2
:10AD800004E000BF4EF67E70C0F6040008213FF0DC
:10AD900041FC4FF47A703DF075FE4FF257104FF2C0
:10ADA0005111C0F60400C0F604014FF47A7238F075
:10ADB000D3FA78B140F2CC704FF22311C2F2000006
:10ADC000C0F60401FFF7B9FA90B34EF69D70C0F6D5
:10ADD000040003E04EF67E70C0F6040009213FF047
:10ADE00019FC4FF47A703DF04DFE4FF257104FF2C0
:10ADF0005111C0F60400C0F604014FF47A7238F025
:10AE0000ABFA002850D040F2CC704FF22311C2F2BE
:10AE10000000C0F60401FFF790FA48B14EF69D70AD
:10AE2000C0F604000A21BDE810403FF0F3BB00BFAC
:10AE30004FF26000C0F604003FF07EFE4FF2471074
:10AE40004FF23F11C0F60400C0F604014FF4FA625D
:10AE500038F082FA30B340F2CC70C2F20000222106
:10AE6000FFF789FAF0B1441C20462221FFF783FA4C
:10AE7000002808BF10BD021B41F21020C2F20000E2
:10AE800000231F2AA8BF1F22C3618361436103619E
:10AE9000C3608360436021460360BDE81040FFF754
:10AEA0005EBA00BF10BD00BF4EF67E70C0F6040053
:10AEB0000A21BDE810403FF0ADBB00BF41542B4319
:10AEC000574A41503D225265646D69204B3730220C
:10AED0002C22323030323132313337220000000040
:10AEE0005749464920474F542049500070470000B9
:10AEF00072B600BFFEE7000082B040F2D00740F219
:10AF000000050126C2F200070DF10704C2F2000598
:10AF10000FF234083868214601224FF0FF333EF02B
:10AF200065FD0128F6D1002E1CBF40463FF072FBA4
:10AF30009DF8070029463FF0FCFD9DF807000A3800
:10AF4000B0FA80F04609E5E75B4630205265706C48
:10AF5000795D3A200000000070B542F220060446F8
:10AF6000C4F2020600F00EFC316811F4403F0ED02E
:10AF70000546601C26D000BF00F004FC401BA04228
:10AF800024BF032070BD306810F4403FF4D1306816
:10AF900042F2FA0101401BD040F2A400C2F20000CC
:10AFA00042680A4342600120316070BD306810F48D
:10AFB000403FECD0306810F4403FE8D0306810F4E7
:10AFC000403FE4D0306810F4403FEFD1DFE700BFEE
:10AFD0003068C0074FF0000008BF70BD012131602C
:10AFE00070BD000010B50024C4F2022420464FF4C6
:10AFF0000061002200F0C0FB0A2000F0FDF82046AE
:10B000004FF40061012200F0B7FB6420BDE810405E
:10B0100000F0F2B8B0B582B041F230240220C2F2A2
:10B0200000048DF8070064250DF107022046702109
:10B030000123009500F026FD0DF106022046712146
:10B040000123009500F046FC9DF8060002B0B0BD5B
:10B0500070B582B041F230240320C2F200048DF8B2
:10B06000050064250DF1050220467021012300959D
:10B0700000F008FD01AA204671210123009500F08F
:10B0800029FC04209DF804608DF807000DF10702EB
:10B09000204670210123009500F0F4FC0DF106021A
:10B0A000204671210123009500F014FC9DF8060054
:10B0B00006F00F0140EA012002B070BD70B582B009
:10B0C00041F230240520C2F200048DF80500642509
:10B0D0000DF10502204670210123009500F0D2FCFD
:10B0E00001AA204671210123009500F0F3FB062000
:10B0F0009DF804608DF807000DF1070220467021CD
:10B100000123009500F0BEFC0DF1060220467121DE
:10B110000123009500F0DEFB9DF8060006F00F010C
:10B1200040EA012002B070BDB0B5044600F02AFB31
:10B13000002C04BF0120B0BD054694F8540002283D
:10B1400024D12068416941F004014161052084F85F
:10B15000540000BF2168086980041FD400F012FB6E
:10B16000401B0628F6D3A06D40F01000A065032018
:10B1700084F8540094F8500000064FF0010001D507
:10B18000616F0873002184F84C10B0BD2020A065C9
:10B190000120002184F84C10B0BD00BF4869012295
:10B1A00040F002004861042084F854004FF4FE404F
:10B1B000C86084F8542094F8500000064FF0000056
:10B1C000E0D5636F1A738864002184F84C10B0BD19
:10B1D00080B190F8541002290AD1042180F854104B
:10B1E000006842F204024169114341610020704746
:10B1F0002021816501207047B0B5044600F0C2FAF5
:10B20000054640F20400C2F200000078611C18BF3D
:10B21000044400BF00F0B6FA401BA042FAD3B0BD10
:10B220002DE9F04F81B040F2A40BC2F2000B9BF865
:10B230000020012A02BF022001B0BDE8F08F0446C1
:10B2400001208BF8000000254FF47A708946CBF876
:10B250000450FFF781FE28B18BF8005001B0BDE823
:10B26000F08F00BF206848F2040220F0004142F253
:10B2700028079142C4F20207CBF8080014D1606895
:10B28000C10706D002223968C0F20102023211431E
:10B290003960800703D5386840F4C03038604FF417
:10B2A0007A70FFF759FE32E04FF0FF30C9F8000026
:10B2B000D4E902603044864224D240F2020A4FF6BA
:10B2C0000548C0F2010AF500CFF6FE7860683968DB
:10B2D00060F3CB2181F400603860386800EA080030
:10B2E000284340EA0A0038604FF47A70FFF734FED2
:10B2F00050B9D4E902010136083508448642E5D345
:10B30000002003E0002002E0C9F800600025216869
:10B310004FF000423B6862EA0101194039608BF846
:10B32000005001B0BDE8F08F42F22800C4F20200E4
:10B33000016841F0004101600068C043C00F7047E0
:10B340002DE9F04740F2A409C2F2000999F8003053
:10B35000012B04BF0220BDE8F0870746012089F8D1
:10B360000000002042F220068A461546C4F202067A
:10B37000C9F8040000F006FA316811F4403F0BD020
:10B38000044600BF00F0FEF9001BC0087C2815D859
:10B39000306810F4403FF5D1306842F2FA010840BD
:10B3A00012D0D9F804100143C9F80410306001200C
:10B3B000002189F80010BDE8F08700BF03200021BC
:10B3C00089F80010BDE8F087306827F00048C00712
:10B3D0001CBF01203060C9F80870B268B8F1010FD5
:10B3E0002946504616D142F00102B260EFF31082B6
:10B3F00072B60B6803604B6843608B688360C968F2
:10B40000C16082F3108800F0BDF9316811F4403F4B
:10B410004FD159E044F201031A43B260EFF31082B6
:10B4200072B60B6803604B6843608B688360CB68BF
:10B43000C3600B6903614B6943618B698361CB69AD
:10B44000C3610B6A03624B6A43628B6A8362CB6A95
:10B45000C3620B6B03634B6B43638B6B8363CB6B7D
:10B46000C3630B6C03644B6C43648B6C8364CB6C65
:10B47000C3640B6D03654B6D43658B6D8365CB6D4D
:10B48000C3650B6E03664B6E43668B6E8366CB6E35
:10B49000C3660B6F03674B6F43678B6F8367C96F1F
:10B4A000C16782F3108800F06DF9316811F4403FF4
:10B4B0000AD0044600F066F9001BC0087C280FD8AB
:10B4C000306810F4403FF5D1306842F2FA01014093
:10B4D00008D0D9F804000843C9F80400012007E0A7
:10B4E000032006E03068C0074FF0000001D00121C2
:10B4F0003160B16821EA0801B160002189F80010CB
:10B50000BDE8F08742F20800C4F20200016AB1F11E
:10B51000FF3FC4BF0020704740F22311C4F26751BF
:10B52000016048F6AB11CCF6EF510160006AC00F24
:10B53000704700002DE9F04F83B00E68002E00F038
:10B54000178181462030019047F67F70C0F22F00AE
:10B5500000EA9920002200234FF0010B00274FF052
:10B560000008C4F20262CA464FF0000C00900FE0DF
:10B570000022C4F202620E680CF1010C36FA0CF0E3
:10B5800008F1020807F1040703F1080300F0F08056
:10B590000BFA0CF516EA0500EDD09145029025D086
:10B5A0004E6846F01002122A5ED16FF0030000EAE6
:10B5B0005C02019807F01C0550F802E00E690F24A8
:10B5C000AC4006F00F062EEA0404AE402643865037
:10B5D000DAF8002003204E6800FA08F5AA4306F0C6
:10B5E000030505FA08F52A4349E000BF10684E68D4
:10B5F0004AF6C03406F00106A84306FA0CF6C0F677
:10B600000404304304EBCC061060D6F804E06FF07D
:10B61000030054F83CA000EA5E051C20554400EAF3
:10B620008E06D5F820B00F22484602FA06F92BEA1A
:10B63000090281460B2000FA06F632432A62DAF844
:10B6400000204FEA4E05032000FA05F60220B2431F
:10B6500000FA05F52A43CAF800204E684FF0010BA6
:10B66000122E11D936E000BFDAF80020032000FACC
:10B6700008F5AA4306F0030505FA08F52A43E6464D
:10B68000CAF80020122E25D80BFA06F212F0061F77
:10B690001AD04FEA4E040320DAF8082000FA04F525
:10B6A000C868AA43A0401043CAF80800DAF80400AA
:10B6B0000BFA0EF29043320902FA0EF21043032EF7
:10B6C000CAF8040002D005E0032E03D188680128DF
:10B6D0003FF44EAFDAF80C004FEA4E0203258C68B7
:10B6E0009540A84304FA02F21043F200CAF80C0095
:10B6F0007FF53EAF42F2000E2CF00300C4F2026E62
:10B700007044026E03F018060F25B540AA43009D51
:10B7100005FA06F632430266DEF80000029C4A682B
:10B7200040EA0406D50258BF20EA0406CEF80060BD
:10B73000DEF80400950240EA040658BF20EA040639
:10B74000CEF80460DEF88400950340EA040658BF92
:10B7500020EA0406CEF88460DEF88000D20340EAD6
:10B76000040658BF20EA0406CEF8806000E700BF58
:10B7700003B0BDE8F08F00001823002A08BF28237B
:10B78000C15070474FF29840C2F202000068704703
:10B7900090F84120202A03D190F84020012A01D1BD
:10B7A00002207047242280F841200268136823F0A9
:10B7B00001031360136823F4805313601368194363
:10B7C0001160116841F001011160202180F84110E1
:10B7D000002180F8401000207047000090F84120C0
:10B7E000202A03D190F84020012A01D1022070477D
:10B7F000242280F841200268136823F001031360BB
:10B80000136823F4706343EA01211160116841F069
:10B8100001011160202180F84110002180F84010C2
:10B8200000207047002804BF0120704710B590F831
:10B83000411031B9002180F84010044600F0FAF9B7
:10B840002046242180F8411090E81210C3680A684D
:10B85000012B22F001020A6024F070620A618A68FA
:10B8600022F400428A6003D14CF400428A6009E06D
:10B870004CF40442022B8A6004D14A6842F400620C
:10B8800003E000BF4A6822F400624A604A6800F19F
:10B89000100442F0007242F400424A60CA6822F486
:10B8A0000042CA601CCC1A4342EA0422C369CA603F
:10B8B000026A1A430A600A6842F001020A60002123
:10B8C0002022416480F84120016380F8421000206A
:10B8D00010BD00002DE9F04F81B0044690F8410002
:10B8E000202803D194F84000012803D1022001B0A0
:10B8F000BDE8F08F01200D461746984684F84000B9
:10B90000FFF740FF216806468A69120427D42220E7
:10B9100084F84100102084F84200002060646762CF
:10B92000A4F82A806063608D49F6000C40F200089C
:10B93000B0F5807FCFF6004CC0F2FF1828D34B68DB
:10B940002A466FF39F2203EA0C031A43424402F58E
:10B9500010524A60FF222AE088690004D7D52046A9
:10B960001921324604F0D6F8002871D1FFF70AFFFA
:10B97000801B21681A28EFD388690004ECD5606C1D
:10B9800040F020006064202084F84100012070E035
:10B99000628D2B466FF39F23D7B2486843EA074373
:10B9A00000EA0C00184308F59233184348602285DA
:10B9B000608D0A9F002845D06FF39F2505F100791F
:10B9C0004FF0FF0A0CF5806B0DE000BF608D216821
:10B9D0002085C0B24A6849EA004002EA0B021043DF
:10B9E0004860608D70B320463946324604F0BEF997
:10B9F00070BB2068616A406A0870606A218D0130FE
:10BA00006062481E2085618D01396185618D002944
:10BA1000E7D00004E5D12046802100223B46009675
:10BA200004F028F9A0B9608DB0F5807FCED32068EE
:10BA3000A4F828A0416801EA0B01294341EA080162
:10BA40004160CEE720463946324604F0FBF918B192
:10BA5000012001B0BDE8F08F20682021C16142685B
:10BA60004EF60003CFF600631A404260002084F8CF
:10BA70004110002184F8421084F8401001B0BDE864
:10BA8000F08F00002DE9F04F81B0044690F841009E
:10BA9000202803D194F84000012803D1022001B0EE
:10BAA000BDE8F08F01200D461746984684F8400007
:10BAB000FFF768FE216806468A69120427D4212010
:10BAC00084F84100102084F842000020606467621E
:10BAD000A4F82A806063608D49F6000C40F20008EB
:10BAE000B0F5807FCFF6004CC0F2FF1828D34B682A
:10BAF0002A466FF39F2203EA0C031A43424402F5DD
:10BB000000524A60FF222AE088690004D7D5204607
:10BB10001921324603F0FEFF002871D1FFF732FEF3
:10BB2000801B21681A28EFD388690004ECD5606C6B
:10BB300040F020006064202084F84100012070E083
:10BB4000628D2B466FF39F23D7B2486843EA0743C1
:10BB500000EA0C00184308F590331843486022852A
:10BB6000608D0A9F002845D06FF39F2505F100796D
:10BB70004FF0FF0A0CF5806B0DE000BF608D21686F
:10BB80002085C0B24A6849EA004002EA0B0210432D
:10BB90004860608D70B320463946324604F090F913
:10BBA00070BB606A226810F8011B91626062608D50
:10BBB00001386085208D01382085618D0029E8D00D
:10BBC0000004E6D12046802100223B46009604F086
:10BBD00051F8A8B9608DB0F5807FCFD32068A4F864
:10BBE00028A0416801EA0B01294341EA08014160AC
:10BBF000CFE700BF20463946324604F023F918B19A
:10BC0000012001B0BDE8F08F20682021C1614268A9
:10BC10004EF60003CFF600631A404260002084F81D
:10BC20004110002184F8421084F8401001B0BDE8B2
:10BC3000F08F0000B0B5B8B0044602A80025083067
:10BC4000B8213795CDE93555CDE93355FEF76AFB77
:10BC5000206845F20041C4F20001884202D038B0A9
:10BC6000B0BD00BF4020029002A8039501F068F823
:10BC7000002818BFFFF73CF940F68C44C4F2026478
:10BC8000206833A940F002002060206800F0020024
:10BC900001900198C0203390122034900020CDE90B
:10BCA00035000420379040F20040C4F20220FFF734
:10BCB00041FC206940F400102061206900F400106C
:10BCC0000190019838B0B0BD40F20041C4F20301C8
:10BCD000086840F0010200200A60704740F204004A
:10BCE0004FF29841C2F20000C2F2020100780A68E5
:10BCF000104408607047000080B542F20000C4F2B2
:10BD00000200016841F480710160032000F0C8F86E
:10BD100001F00AFD40F62041C4F2026109684AF6CA
:10BD2000A83201F00F01C0F60402515CC84040F295
:10BD30006801C2F200010860042002F0E7FD002063
:10BD400000F008F800281CBF012080BD00F054F866
:10BD5000002080BDB0B588B040F6A441C4F20261B5
:10BD60000A68044642F400620A60096802A801F405
:10BD700000610291029901A901F03AFC01F094FCE2
:10BD80004DF68361C4F21B31A0FB01014FF0FF307F
:10BD900000EB914141F2143042F60043C2F2000040
:10BDA00040F2E732C4F201030025C0E90031C0E9E6
:10BDB0000252056102F0A4FE30B941F21430C2F221
:10BDC000000002F0F1FE38B105462A2000F02AF802
:10BDD000284608B0B0BD00BF0F2C0BD82A20214642
:10BDE0000022002500F030F840F20800C2F2000006
:10BDF0000460EAE70125E8E781B040F69440C4F228
:10BE000002600168002241F00401016000680F2116
:10BE100000F00400009000986FF0010001B000F005
:10BE200013B80000002848BF70471C2200F01F0113
:10BE300002EAD000012202FA01F14EF20012CEF223
:10BE4000000281507047000010B54EF60C5CCEF237
:10BE5000000CDCF80030C3F3022E8EF00704042C33
:10BE600028BF0424BEF103034FF0FF3E38BF002378
:10BE70000EFA04F4A14399400EFA03F39A431143D6
:10BE800000F00F0200F160430901043A03F5644336
:10BE90006244002848BF02F10C03197010BD000075
:10BEA0004EF60C51CEF200010A684FF6FF031A401D
:10BEB00060F30A2242F0806040F0FD700860704735
:10BEC00040F60C0CC4F2026CDCF8302002F4403274
:10BED00082420BD1B0F1011F68D3DCF8000040F4BE
:10BEE0008020CCF800000020704700BFDCF8002064
:10BEF000B0F5803F22F4E02242EA000240F26800FE
:10BF000088BF42F48022CCF80020C2F20000006812
:10BF100041F25972CDF2B712A0FB0202900B034618
:10BF2000DCF80010B3F1FF3218BF012209041ED45F
:10BF3000591C1CD0DCF80010002B1A4618BF012237
:10BF4000090414D49BB1DCF800105A1E18BF01225A
:10BF500009040CD4012B0AD0DCF800109A1E18BF7B
:10BF60000122090403D4022BA3F10403D8D112B394
:10BF7000DCF83010421C090416D4AAB1DCF83010E9
:10BF8000090412D488B1DCF83010090410D4012857
:10BF90000ED0DCF83010021F090402D4022810462B
:10BFA000E6D1901C10B906E0104620B10020704781
:10BFB00001380028FAD103207047000040F63C0009
:10BFC000C4F20260006800F440307047B0B540F63B
:10BFD000284EC4F2026EDEF80C50DEF80030DEF8B7
:10BFE0000010DEF80020DEF81040D206E40804EA73
:10BFF000E272C1F3032103F003036FF35F3201F137
:10C00000010C00EE102A6FF35F25B8EE400ADFE85E
:10C0100003F003030B0B00BF5EF8201C09025DD484
:10C02000DEF8CC100B045BE001EE10CA9FED472A4E
:10C03000B8EE411ADEF80C1082EE011A6FF35F21A0
:10C0400002EE101A9FED403AB8EE422A20EE030AA3
:10C0500030EE020AB7EE002A30EE020A21EE000AA4
:10C06000DEF80010C90360D5DEF80C10C1F34621DC
:10C07000013101EE101AB8EE411A80EE011ABCEE41
:10C08000C11A11EE102A0260DEF80010890352D5A1
:10C09000DEF80C10C1F30641013101EE101AB8EEC2
:10C0A000411A80EE011ABCEEC11A11EE102A42604C
:10C0B000DEF80010490344D5DEF80C10C1F3066128
:10C0C000013101EE101AB8EE411A80EE010ABCEE01
:10C0D000C00A10EE101A8160B0BD00BF5EF8203CAF
:10C0E0004AF64042190FC0F6040202EB810102EE4B
:10C0F00010CA91ED001AB8EE422AB8EE411A9FED2F
:10C10000123A81EE021A02EE105A20EE030AB8EE3D
:10C11000422A30EE020AB7EE002A30EE020A20EE82
:10C12000010ADEF80010C9039ED400220260DEF886
:10C1300000108903ACD400224260DEF800104903ED
:10C14000BAD400218160B0BD000000390024744BD6
:10C15000B0B540F62C4EC4F2026EDEF81050DEF898
:10C160000030DEF80010DEF80020DEF81440D206C1
:10C17000E40804EAE272C1F3032103F003036FF35E
:10C180005F3201F1010C00EE102A6FF35F25B8EE6B
:10C19000400ADFE803F003030B0B00BF5EF8241C2A
:10C1A00009025DD4DEF8C8100B045BE001EE10CA92
:10C1B0009FED472AB8EE411ADEF8101082EE011A00
:10C1C0006FF35F2102EE101A9FED403AB8EE422A5B
:10C1D00020EE030A30EE020AB7EE002A30EE020A21
:10C1E00021EE000ADEF80010C90360D5DEF8101059
:10C1F000C1F34621013101EE101AB8EE411A80EE6A
:10C20000011ABCEEC11A11EE102A0260DEF800100D
:10C21000890352D5DEF81010C1F30641013101EE59
:10C22000101AB8EE411A80EE011ABCEEC11A11EED6
:10C23000102A4260DEF80010490344D5DEF81010E1
:10C24000C1F30661013101EE101AB8EE411A80EE19
:10C25000010ABCEEC00A10EE101A8160B0BD00BF2A
:10C260005EF8243C4AF64042190FC0F6040202EB85
:10C27000810102EE10CA91ED001AB8EE422AB8EE22
:10C28000411A9FED123A81EE021A02EE105A20EE88
:10C29000030AB8EE422A30EE020AB7EE002A30EE68
:10C2A000020A20EE010ADEF80010C9039ED4002223
:10C2B0000260DEF800108903ACD400224260DEF890
:10C2C00000104903BAD400218160B0BD00000039DC
:10C2D0000024744BB0B540F6304EC4F2026EDEF866
:10C2E0001450DEF80030DEF80010DEF80020DEF832
:10C2F0001840D206E40804EAE272C1F3032103F015
:10C3000003036FF35F3201F1010C00EE102A6FF3AB
:10C310005F25B8EE400ADFE803F003030B0B00BF14
:10C320005EF8281C09025DD4DEF8C4100B045BE043
:10C3300001EE10CA9FED472AB8EE411ADEF814103C
:10C3400082EE011A6FF35F2102EE101A9FED403A60
:10C35000B8EE422A20EE030A30EE020AB7EE002AB7
:10C3600030EE020A21EE000ADEF80010C90360D5A3
:10C37000DEF81410C1F34621013101EE101AB8EEB7
:10C38000411A80EE011ABCEEC11A11EE102A0260A9
:10C39000DEF80010890352D5DEF81410C1F306410F
:10C3A000013101EE101AB8EE411A80EE011ABCEE0E
:10C3B000C11A11EE102A4260DEF80010490344D57C
:10C3C000DEF81410C1F30661013101EE101AB8EE67
:10C3D000411A80EE010ABCEEC00A10EE101A81600C
:10C3E000B0BD00BF5EF8283C4AF64042190FC0F6C7
:10C3F000040202EB810102EE10CA91ED001AB8EEC0
:10C40000422AB8EE411A9FED123A81EE021A02EE6C
:10C41000105A20EE030AB8EE422A30EE020AB7EEB6
:10C42000002A30EE020A20EE010ADEF80010C903ED
:10C430009ED400220260DEF800108903ACD40022F2
:10C440004260DEF800104903BAD400218160B0BD1B
:10C45000000000390024744B80B584B0024647F6D2
:10C46000FF7300209B1A70EB0103C0F26D80D2F1C4
:10C470007F0370EB0103C0F2A380013A61F1000178
:10C48000D2F13F034FF0000373EB0101C0F04A8487
:10C49000DFE812F040005A0248040402480448044D
:10C4A0004804EA014804480448044804480448048D
:10C4B00048041E0248044804480448044804480448
:10C4C000480448044804480448044804480448040C
:10C4D0004804C60148044804480448044804480481
:10C4E00048044804480448044804480448044804EC
:10C4F00048044804480448044804480448044804DC
:10C5000048044804480448044804480448044804CB
:10C5100048043A0240F60040C4F20260D0F8E0104D
:10C5200001F00301012900F05183002900F0F88295
:10C530000268022903D112F4806240F09E83D0F891
:10C54000F00003294FE200BF4FF6FF73C0F23F0334
:10C550009B1A70EB010367DB4FF6FF73C0F2030316
:10C560009B1A4FF0000C7CEB010380F285804FF6A4
:10C57000FF73C0F20F039B1A7CEB0103C0F2EE8045
:10C5800082F480230B4300F0F98182F400221143EE
:10C5900040F0C88340F60040C4F20260D0F8E410D6
:10C5A000026801F44051920440F12483002940F0D4
:10C5B000218346F60040C0F2DC2004B080BD00BFFD
:10C5C00040F2FF339B1A4FF0000C7CEB010380F22A
:10C5D000778041F6FF739B1A7CEB0103C0F2DC808D
:10C5E00082F480630B4300F0DF8182F40062114328
:10C5F00040F0988340F60040C4F20260D0F8E810A2
:10C6000011F4407100F09282D0F8F020B1F5807FF3
:10C6100003D112F0006240F000830268B1F5007FA0
:10C6200000F069816BE100BF6FF07E439B1A4FF011
:10C63000000C7CEB010380F273806FF078439B1A4F
:10C640007CEB0103C0F2C68082F000730B4300F064
:10C65000D38182F08062114340F0648340F6004051
:10C66000C4F20260D0F8E410C1F30151DFE811F028
:10C67000AE025E021A02B40282F400430B4300F0E1
:10C68000618282F480330B4300F0128282F4003224
:10C69000114340F0478340F60041C4F20261D1F8F3
:10C6A000E800C0F30242042A00F2CC824BF680304C
:10C6B000DFE812F058021202D60238039A0200BFD5
:10C6C00082F080030B4300F0538282F480730B43AB
:10C6D00000F0088282F40072114340F0238340F698
:10C6E0000040C4F20260D0F8E81011F4406100F09C
:10C6F000A582D0F8F020B1F5806F03D112F000626E
:10C7000040F08B820268B1F5006F03D112F48062B1
:10C7100040F0B382D0F8F000B1F5406F63E100BFA4
:10C7200082F480030B4300F03F8282F400030B434A
:10C7300000F0EA8182F08072114340F0F38240F60B
:10C740000040C4F20260D0F8E010C1F30141DFE81C
:10C7500011F038023D02F701ED0100BF82F48013B1
:10C760000B4300F0578182F40012114340F0DA824B
:10C7700040F60040C4F20260D0F8E410490400F131
:10C78000AB81D0F8E010C1F38161DFE811F0510115
:10C7900025028B01CF0100BF82F400530B4300F050
:10C7A000518182F48042114340F0BC8240F6004146
:10C7B000C4F20261D1F8E400C0F30222042A00F2BC
:10C7C00041824BF68030DFE812F0330251018701DD
:10C7D000AD02410282F000630B4300F04D8182F014
:10C7E0008052114340F09E8240F60041C4F2026143
:10C7F000D1F8E800D1F8F020920700F4004202D509
:10C80000002A00F0CC80D1F8F00000014FF00000C9
:10C8100040F18882002A00F08582D1F8F000FEE124
:10C8200040F60041C4F20261D1F8E80000F00700D0
:10C83000012800F0CB81002800F060810A680228FE
:10C8400003D112F4806240F01882D1F8F02003285E
:10C8500003D112F0020240F0A2800A6804284FF0CF
:10C86000000000F055825DE240F60040C4F2026034
:10C87000D0F8E01001F0C001402900F0A7810029A4
:10C8800000F09F810268802903D112F4806240F099
:10C89000F481D0F8F000C029A5E000BF40F60040C8
:10C8A000C4F20260D0F8E01001F03001102900F06D
:10C8B0008D81002900F085810268202903D112F4BE
:10C8C000806240F0DA81D0F8F00030298BE000BFC0
:10C8D00040F60040C4F20260D0F8E01001F440716C
:10C8E000B1F5807F00F07281002900F06A81026852
:10C8F000B1F5007F03D112F4806240F0BE81D0F820
:10C90000F000B1F5407F6EE040F60041C4F20261F4
:10C91000D1F8E00000F44060B0F5806F00F056817F
:10C92000002800F04E810A68B0F5006F03D112F4C0
:10C93000806240F0A2810A68B0F5406F4FF00000BD
:10C9400000F0E681EEE100BF40F60040C4F2026074
:10C95000D0F8E01001F00C01042900F03781002923
:10C9600000F02F810268082903D112F4806240F0A0
:10C970008481D0F8F0000C2935E000BF40F600407B
:10C98000C4F20260D0F8F010D0F8F02001F4407149
:10C99000920740F13B81B1F5807F40F037814FF441
:10C9A000004004B080BD00BF40F60040C4F2026009
:10C9B000D0F8E01011F4402100F00381D0F8F0200D
:10C9C000B1F5802F03D112F0006240F02681026899
:10C9D000B1F5002F03D112F4806240F04E81D0F8FF
:10C9E000F000B1F5402F00F002024FF0000008BF48
:10C9F000900304B080BD00BF40F60040C4F2026066
:10CA0000D0F8E810C1F3C101DFE811F07800E000D0
:10CA10009A00900040F60040C4F20260D0F8E010A6
:10CA2000C1F38161DFE811F00400D8003E0082000C
:10CA3000006846F600418004C0F2DC2101EAE070A3
:10CA400004B080BD40F60041C4F20261D1F8E400B8
:10CA5000C0F34212042A00F2F5804BF68030DFE882
:10CA600012F0E70005003B006101F50001A8FFF7A7
:10CA700031FC019804B080BD40F60040C4F2026071
:10CA8000D0F8E0100068800301F0407002D5002863
:10CA900000F0F380B0F1007F00F0CA80B0F1807F39
:10CAA00040F0D08001A8FFF791FA029804B080BD51
:10CAB00040F60041C4F20261D1F8E40000F0070240
:10CAC000042A00F2BF804BF68030DFE812F04B0002
:10CAD0000500C9002B018D0001A8FFF777FA019826
:10CAE00004B080BD40F60040C4F20260D0F8E81007
:10CAF000C1F38111DFE801F0026A241A04B0BDE835
:10CB0000804000F0F1BD00BF40F60040C4F202607A
:10CB1000D0F8E010C1F30151DFE801F0025812082B
:10CB200004B0BDE8804000F0BFBD00BF01688906C9
:10CB300040F188808168090254D4D0F8F400EFE015
:10CB4000006884E040F60041C4F20261D1F8E800D8
:10CB5000C0F30232052A00F2BB80DFE802F003379F
:10CB6000B3B9B94504B0BDE8804000F067BD00BF6F
:10CB700040F60041C4F20261D1F8E00000F44050F8
:10CB8000B0F5805F22D0E0B10A68B0F5005F02D155
:10CB900012F4806271D10A68B0F5405F4FF0000076
:10CBA00000F0B680BEE000BF40F60041C4F2026172
:10CBB000D1F8E00000F44040B0F5804F06D00028E6
:10CBC00054D104B0BDE8804000F04EBD04B0BDE8D3
:10CBD000804000F0A9BD00BF01A8FFF7B9FA029894
:10CBE00004B080BD8068A0E00868800600F19380F2
:10CBF00028E000BF0268920446D5B1F5805F43D1BA
:10CC000043F20060C0F26E1004B080BDD0F8F02096
:10CC1000120147D5B1F5007F44D1D0F8F000C00033
:10CC20004FF0FA0058BF4FF4FA4004B080BD00BF87
:10CC300001A8FFF78DFA019804B080BD016889064C
:10CC40003FF578AF002004B080BD00BF086842F215
:10CC500000414005C0F2F40101EAE07004B080BD7B
:10CC600001A8FFF737FB029804B080BD0A68B0F551
:10CC7000004F47D112F4806244D042F20040C0F22B
:10CC8000F40004B080BD00BF0068B1F5005F00F49F
:10CC900080624FF0000004BF42F20040C0F2F40096
:10CCA0000CE000BF0068B1F5407F00F400324FF0A7
:10CCB000000004BF4AF22010C0F20700002A08BF9B
:10CCC00010462FE001A8FFF743FA039804B080BD97
:10CCD00000F4E0420B6842F20040B2F5405FC0F25F
:10CCE000F40002D113F400331CD1096811F48061FF
:10CCF00018BF0146B2F5804F18BF0021084604B0A6
:10CD000080BD00BF0A68B0F5404F4FF0000009D168
:10CD100012F0200206D08868000205D4D1F8F40091
:10CD2000000402E004B080BD8868C0F303604AF6E6
:10CD30004041C0F6040151F8200004B080BD00005D
:10CD40002DE9F04F81B00446006840F6E046C10787
:10CD5000C4F202661ED1810724D441072AD40107F8
:10CD600030D4C10636D481063CD4410642D40106F3
:10CD700048D4C1054ED4410254D481055AD441054A
:10CD800060D4010566D440F628488004C4F20268E5
:10CD90006DD494E03168226D21F0030111433160BC
:10CDA0008107DAD53168626D21F00C0111433160E1
:10CDB0004107D4D53168A26D21F0300111433160B3
:10CDC0000107CED53168E26D21F0C0011143316019
:10CDD000C106C8D53168226E21F44071114331601B
:10CDE0008106C2D5B168626E21F007011143B160BE
:10CDF0004106BCD53168A26E21F440611143316017
:10CE00000106B6D53168E26E21F44051114331601C
:10CE1000C105B0D5B168226F21F0C0011143B160E6
:10CE20004102AAD53168626F21F44041114331605B
:10CE30008105A4D5B168A26F21F440611143B160AE
:10CE400041059ED53168E26F21F4402111433160E4
:10CE5000010598D5B168D4F8802021F440711143C0
:10CE6000B16040F628488004C4F2026827D5D4F89F
:10CE700090004FEA7011042928D8DFE801F003136D
:10CE80000B1B1B0004F1080005F0B2FB0546B8B906
:10CE90000EE000BFD8F8001041F48031C8F800104F
:10CEA00008E000BF04F12C0005F01CFC054638B971
:10CEB000D4F89000716821F0E0010843706000250B
:10CEC0006078400606D4284629E000BF0125607836
:10CED0004006F8D5D4F894004FEA3021042939D817
:10CEE0002846DFE801F0032F0B12120004F10800BE
:10CEF00005F07EFB074698B909E000BFD8F80000AE
:10CF000040F48030C8F800002846074640B97068F1
:10CF1000D4F8941020F4E0600843706000202F469D
:10CF20006178090629D5D4F8A4104FEA31310529D2
:10CF300000F2C681022911D00546B0B1A178C90717
:10CF40001FD13BE004F12C0005F0CCFB0028074684
:10CF5000E6D1DCE701200127E2E700BF04F1080089
:10CF600005F046FB00280546E8D1B068D4F8A410C7
:10CF700020F4E0400843B06000203D46A178C90796
:10CF80001CD0D4F88810042900F29281DFE811F057
:10CF90000C0006007C010C000C0000BFD8F800104B
:10CFA00041F48031C8F80010074640B97068D4F8E1
:10CFB000881020F007000843706000202F46A178F9
:10CFC00089071DD5D4F88C104FEA3141042900F2AD
:10CFD0007381DFE811F00B00050063010B000B000B
:10CFE000D8F8001041F48031C8F80010824640B9EA
:10CFF000B068D4F88C1020F4E0200843B060002022
:10D00000BA46A178490701D4574659E0834656F8F5
:10D010004C0C5FEA40790BD456F84C0C40F00400FD
:10D0200046F84C0C56F84C0C00F0040000900098A8
:10D030004FF60047CFF6FF7758F8070040F00100A1
:10D0400048F80700FEF79EFB054600BF58F80700AA
:10D05000C00707D1FEF796FB401B0228F6D9032034
:10D06000032724E05846BBF1000F5F461FD130690B
:10D0700010F4407012D0D4F8BC1088420BD0306944
:10D08000316920F4407041F480313161316921F41B
:10D09000803131613061C00740F01A813069D4F8C5
:10D0A000BC1020F440700843306100205746B9F1AD
:10D0B000000F05D456F84C1C21F0040146F84C1C16
:10D0C000A178C90618D5D4F89C104FEAB16103299C
:10D0D00000F2D080DFE801F00602C20604F1080089
:10D0E00005F086FA024640B93068D4F89C1020F06A
:10D0F00040600843306000203A4621680B031DD58C
:10D10000D4F8983033B1B3F5005F18BFB3F5805F42
:10D1100040F0B480054658B18A0212D40A0222D4E3
:10D12000CA0129D48A0130D4490137D459E000BF5B
:10D13000706820F4405018437060002015468A0241
:10D14000ECD5D4F8A020B2F5804F05D1D8F8003046
:10D1500043F48033C8F80030736823F480431A43E3
:10D1600072600A02DCD53268D4F8B03022F4401282
:10D170001A433260CA01D5D53268D4F8B43022F4EB
:10D1800040321A4332608A01CED5B268D4F8B83042
:10D1900022F018021A43B260490122D5D4F8AC102B
:10D1A000B1F5401F0ED0B1F5001F05D1D8F8001021
:10D1B00041F40031C8F80010074650B1E178090782
:10D1C00013D436E004F1080005F012FA00280746EF
:10D1D000F4D17068D4F8AC1020F4401008437060AB
:10D1E00000202F46E178090723D5D4F8841059B1DF
:10D1F000B1F1007F10D0B1F1807F29D1D8F80010B3
:10D2000041F40031C8F8001060B1E178C90614D4C7
:10D2100001B0BDE8F08F00BF04F1080005F0E8F9A7
:10D220000028F2D13068D4F8841020F04070084310
:10D2300030603846E178C906EAD5B168D4F8A8204C
:10D2400021F400411143B16001B0BDE8F08F00BF8F
:10D250000120E178C906DBD5EFE700BFD8F8001060
:10D2600041F40031C8F80010002802467FF445AFB1
:10D270003AE700BF012001223FE700BF012001255E
:10D280008A027FF54BAF5CE704F12C0005F02AFA27
:10D29000002807467FF493AE88E600BF04F12C0017
:10D2A00005F020FA002882467FF4ABAEA0E600BF6E
:10D2B0000120012783E600BF01204FF0010AA0E60C
:10D2C00001200125A178C9077FF45BAE76E600BF97
:10D2D000FEF758FA054641F2883B0327306980077C
:10D2E0003FF5DCAEFEF74EFA411B03205945F5D958
:10D2F000DDE600002DE9F04F81B0002800F01C8130
:10D3000042F20008C4F202080446D8F800000D46B4
:10D3100000F00F0081420DD9D8F8000020F00F0076
:10D320002843C8F80000D8F8000000F00F00A84219
:10D3300040F00281206840F62049C106C4F202692B
:10D340000DD56169D9F8042002F07002914206D926
:10D35000D9F8042022F070021143C9F80410010723
:10D360000FD52169D9F80020702303EA12129142E7
:10D3700007D9D9F8002022F4E06242EA0111C9F885
:10D38000001041070DD5E168D9F8002002F07002C5
:10D39000914206D9D9F8002022F070021143C9F851
:10D3A000001081070DD5A168D9F8002002F00F0206
:10D3B000914206D9D9F8002022F00F021143C9F892
:10D3C0000010C00774D1206881070DD5A168D9F875
:10D3D000002002F00F02914206D2D9F8002022F07C
:10D3E0000F021143C9F80010D8F8001001F00F0126
:10D3F0008D420DD2D8F8001021F00F012943C8F852
:10D400000010D8F8001001F00F01A94240F09480FC
:10D4100041070DD5E168D9F8002002F07002914271
:10D4200006D2D9F8002022F070021143C9F800108A
:10D4300001070FD52169D9F80020702303EA1212E1
:10D44000914207D2D9F8002022F4E06242EA0111A9
:10D45000C9F80010C0060DD56069D9F8041001F0B4
:10D460007001884206D2D9F8041021F070010843F7
:10D47000C9F8040000F058F9D9F800104AF6A832AB
:10D4800001F00F01C0F60402525C40F20801C2F242
:10D490000001096840F2680320FA02F2C2F20003B8
:10D4A00008461A6001B0BDE8F04FFEF753BC00BF5C
:10D4B000606840F61C47C4F2026798B302282BD07C
:10D4C000032835D1D9F874005FEA407A0BD4D9F833
:10D4D000740040F00400C9F87400D9F8740000F03A
:10D4E000040000900098FEF74DF94FF6F03BCFF6A0
:10D4F000FF7B57F80B1049036AD4BAF1000F05D42B
:10D50000D9F8740020F00400C9F8740057F81C0C16
:10D51000800111D5606813E057F81C0C80030BD50F
:10D5200002200DE057F81C0C400705D5002007E04D
:10D5300057F81C1C490503D4012001B0BDE8F08F49
:10D54000396821F0030108433860FEF71BF9616870
:10D550000646032941F2883A33D0022923D069B91B
:10D56000386810F00C0F3FF42EAFFEF70BF9801B5C
:10D5700050454FF00300F3D9DFE700BF386800F0F3
:10D580000C0004283FF41FAFFEF7FCF8801B504549
:10D590004FF00300F2D9D0E7FEF7F4F8801B5045B6
:10D5A0004FF00300C9D8386800F00C000828F3D108
:10D5B00009E700BFFEF7E6F8801B50454FF0030077
:10D5C000BBD8386800F00C000C28F3D1FBE600BF94
:10D5D000064600BF57F80B0040043FF58EAFFEF73C
:10D5E000D1F8801B02284FF00300F3D9A5E7000013
:10D5F0001F22026040F62042C4F2026252F8043C4C
:10D6000003F003034360136803F00F0383601368A0
:10D6100003F07003C360D2F800C0702303EA1C1348
:10D620000361526802F07002426142F20000C4F2EB
:10D630000200006800F00F000860704780B500F03D
:10D6400073F840F62041C4F2026109684AF6A83234
:10D6500001F00F01C0F60402515CC84040F26801BD
:10D66000C2F20001086080BD80B500F05DF840F6B0
:10D670002041C4F202610A684AF6A83302F00F02A0
:10D68000C0F604039A5CD04040F26802C2F2000285
:10D69000106009684AF6B832C1F30211C0F60402FC
:10D6A000515CC84080BD000080B500F03DF840F6F8
:10D6B0002041C4F202610A684AF6A83302F00F0260
:10D6C000C0F604039A5CD04040F26802C2F2000245
:10D6D000106009684AF6B832C1F30221C0F60402AC
:10D6E000515CC84080BD000080B500F01DF840F6D8
:10D6F0002041C4F202610A684AF6A83302F00F0220
:10D70000C0F604039A5CD04040F26802C2F2000204
:10D71000106049684AF6B832C1F30211C0F604023B
:10D72000515CC84080BD000040F62841C4F202614F
:10D7300051F80C0C10F00C02086815D00C2A04BF2C
:10D7400000F0030001280FD051F80C0C9FED350AB2
:10D7500000F00C00042842F20040C0F2F4001DD09A
:10D76000082A18BF002019E051F8200C000205D447
:10D77000D1F8CC00C0F3033003E000BF51F8200C17
:10D78000000F4AF64043C0F6040353F82000002A75
:10D7900000EE100A18BF0020B8EE400A0C2A18BF8D
:10D7A0007047D1F800C00A680B68C2F30322086909
:10D7B000013201EE102AC008B8EE411ADB069FEDD7
:10D7C0001B2A00EAE3705FEA8C7258BFB0EE402A71
:10D7D00082EE010A6FF35F3001EE100AC868B8EEFE
:10D7E000411A6FF35F2002EE100A9FED0F3AB8EE78
:10D7F000422A21EE031AC86831EE021AB7EE002A57
:10D80000C0F3066031EE021A013020EE010A01EE8B
:10D81000100AB8EE411A80EE010ABCEEC00A10EE02
:10D82000100A704700000000000000390024744B0B
:10D83000002804BF012070472DE9F04381B040F675
:10D8400094490446C4F2026959F8780C59F86C1CE2
:10D85000227800F00C07D00601F0030822D42078CB
:10D86000C00779D0082F73D00C2F08BFB8F1030F71
:10D870006ED040F60046C4F2026661683068B1F5C9
:10D88000803F00F0DF82B1F5A81F00F0D382B1F530
:10D89000A02F40F0E98240F480203060306820F40E
:10D8A0008010CDE217B30C2F08BFB8F1010F1DD0C7
:10D8B00040F60046C4F20266E1693068002900F0D3
:10D8C000CD8140F001003060FDF75CFF054600BFF0
:10D8D0003068400700F1D481FDF754FF401B022857
:10D8E0004FF00300F4D900F03ABD00BFE069002812
:10D8F00000F0D68340F60045C4F20265666AA86867
:10D9000000025ABFD9F860000004A86800F0704017
:10D91000864240F27781002F40F03983D9F8000029
:10D92000400700F11983D9F8000040F00400C9F85D
:10D930000000D9F8000000F0040000900098FEF705
:10D940003DFBD9F8001021F00401C9F8001005E3EF
:10D950006068002800F0A483207880072FD5042F6A
:10D9600020D00C2F08BFB8F1020F1BD040F60046A4
:10D97000C4F20266E1683068002900F0378240F4A2
:10D9800080703060FDF7FEFE054600BF3068400540
:10D990000CD4FDF7F7FE401B02284FF00300F5D929
:10D9A00000F0DDBCE068002800F07A8359F8840CB0
:10D9B000216920F4F81040EA014049F8840C2078ED
:10D9C00040F600470007C4F2026771D42078400790
:10D9D00000F1C6802078800600F1288120780006BA
:10D9E00000F162812078400600F1AC81A56B002D2A
:10D9F00000F0D28459F8780C00F00C000C2840F0AC
:10DA0000618259F86C1C59F8600C012D00F04883B4
:10DA1000E26B01F00303934240F04283226CC1F3B6
:10DA20000323013A934240F03B83626C01F470415E
:10DA3000914240F03583A26C01466FF35F21013AB9
:10DA4000914240F02D83E16CC0F3462201398A42B5
:10DA500040F02683216DC0F3064201398A4240F02E
:10DA60001F83616DC0F306600139884240F018835E
:10DA700059F85C0CE16DC0F3CC00884200F08C8456
:10DA800059F86C0C20F0100049F86C0CFDF77AFE88
:10DA90000546FDF777FEA842FBD0E06DC00049F8CF
:10DAA0005C0C59F86C0C40F0100000F073BC00BF27
:10DAB000D9F800005FEA40780BD4D9F8000040F0B4
:10DAC0000400C9F80000D9F8000000F0040000903C
:10DAD00000984FF62846CFF6FF76B859C00713D105
:10DAE000B85940F00100B851FDF74CFE054600BFA3
:10DAF000B859C00708D1FDF745FE401B0228F7D9E9
:10DB0000032001B0BDE8F0836069D9F85C100028FB
:10DB100000F0E280A06901F08052904200F0328370
:10DB200001F04062B2F1006F00F0BA82490140F1A9
:10DB30002283D9F85C0020F0A050C9F85C00FDF702
:10DB400021FE0546D9F85C00000140F11383FDF782
:10DB500019FE401B05284FF00300F3D900F0FFBB6E
:10DB6000D9F800005FEA40780BD4D9F8000040F003
:10DB70000400C9F80000D9F8000000F0040000908B
:10DB800000984FF62846CFF6FF76B859C00713D154
:10DB9000B85940F00100B851FDF7F4FD054600BF4B
:10DBA000B859C00708D1FDF7EDFD401B02284FF022
:10DBB0000300F5D9D3E300BFA068C10740F0A280FD
:10DBC000D9F85C10002821F00101C9F85C10D9F8DF
:10DBD0005C1021F00401C9F85C1040F0A180FDF751
:10DBE000D1FD054641F28836D9F85C00800740F146
:10DBF0009782FDF7C7FD401BB0424FF00300F3D9F9
:10DC0000ADE300BFA868B6F1404F40F40000A86043
:10DC1000A86820F0704040EA0600A860C0F0AC8020
:10DC2000E868216A20F01F000843F7E1E16A3868DC
:10DC3000002900F0ED8040F480503860FDF7A2FD2F
:10DC4000054600BF386880043FF5C8AEFDF79AFD71
:10DC5000401B02284FF00300F4D980E320F00100BC
:10DC60003060FDF78FFD0546306840077FF5F7AD62
:10DC7000FDF788FD401B02284FF00300F4D96EE346
:10DC8000B06840F40000B060B168606A21F0704193
:10DC90000143B0F1404FB160C0F09880F068216A54
:10DCA00020F01F00084337E2216B3868002900F09C
:10DCB000F78040F480403860FDF764FD054600BF02
:10DCC000386800043FF58EAEFDF75CFD401B02286E
:10DCD0004FF00300F4D942E321F0A050C9F85C00F2
:10DCE000FDF750FD054600BFD9F85C00000140F18A
:10DCF0005F82FDF747FD401B05284FF00300F3D975
:10DD00002DE300BFD9F85C10400705D541F00400B1
:10DD1000C9F85C00D9F85C1041F00100C9F85C005A
:10DD2000FDF730FD054641F2883600BFD9F85C00AA
:10DD3000800731D4FDF726FD401BB0424FF00300B1
:10DD4000F4D90CE3606B002800F0F280B86840F46E
:10DD50000000B860B968D4E9090221F07061B0F13F
:10DD6000404F41EA0201B960C0F04481F868216A7D
:10DD700020F01F000843DFE2B6F1FF3F40F32881A7
:10DD8000E968206AB6F1804FC0F0448121F4F8417F
:10DD900041EA802042E100BFA168D9F85C00090691
:10DDA00000F1B28020F0800041F28836C9F85C00B2
:10DDB000D9F85C00000540F1B881FDF7E3FC401B99
:10DDC000B0424FF00300F3D9C9E200BFB0F1FF3F0A
:10DDD00040F37281F268216AB0F1804FC0F09881FF
:10DDE00022F4F84040EA812096E100BF20F48070E0
:10DDF0003060FDF7C7FC0546306840057FF5DFADB4
:10DE0000FDF7C0FC401B02284FF00300F4D9A6E246
:10DE100020F480503860FDF7B5FC05463868800472
:10DE20007FF5DCADFDF7AEFC401B02284FF0030090
:10DE3000F4D994E240F480203060306840F48010DF
:10DE40003060306840F480303060FDF79BFC054660
:10DE5000306880033FF580ADFDF794FC401B6428DB
:10DE60004FF00300F4D97AE220F48030306030685B
:10DE7000002920F480203060306820F48010306069
:10DE8000E3D1FDF77FFC0546306880037FF564AD84
:10DE9000FDF778FC401B64284FF00300F4D95EE2E4
:10DEA00020F480403860FDF76DFC054638680004BA
:10DEB0007FF598ADFDF766FC401B02284FF003008C
:10DEC000F4D94CE2386820F080703860FDF75AFCD5
:10DED000022D05460CD13868800140F17581FDF7AF
:10DEE00051FC401B02284FF00300F4D937E200BF79
:10DEF0003868800140F1F681FDF744FC401B0228A0
:10DF00004FF00300F4D92AE240F0800041F2883655
:10DF1000C9F85C00D9F85C00000500F10681FDF746
:10DF200031FC401BB0424FF00300F3D917E200BFB1
:10DF3000386820F010003860FDF724FC054600BF6B
:10DF4000386880067FF552ADFDF71CFC401B0228A7
:10DF50004FF00300F4D902E2FEF730F820F48031EC
:10DF6000B1F5003F3CD10021B6F1805F38BF0121FF
:10DF700042F20000C4F20200026822F00F020A44DA
:10DF80000260006800F00F00884240F08980A868B5
:10DF900040F40000A860A968606A21F07041014364
:10DFA000B0F1404FA96005D3E868216A20F01F0056
:10DFB00008438DE0B0F1FF3F76DDEA68216AB0F1F9
:10DFC000804FC0F0818022F4F84040EA81207FE059
:10DFD000E868216A20F4787040EA41101EE000BF32
:10DFE0000021B1EB167F40F0AD80B0F5803F57D1F6
:10DFF0000321BDE7B0F1FF3F40F37C81FA68216A5D
:10E00000B0F1804FC0F0948122F4F84040EA8120C2
:10E0100092E100BF21F4782141EAC030002FE8608E
:10E0200057D1D9F80000400714D4D9F8000040F0C7
:10E030000400C9F80000D9F8000000F004000090C6
:10E040000098FDF7BBFFD9F8001021F00401C9F8D2
:10E05000001001E0FDF7B2FF20F48031B1F5003F80
:10E0600014D10021B6F1805F38BF012142F20000D7
:10E07000C4F20200026822F00F020A440260006843
:10E0800000F00F00884224D00AE000BF0021B1EB6D
:10E09000167F63D1B0F5803F02D10321E6E700BFD0
:10E0A000012001B0BDE8F083E868216A20F47870AF
:10E0B00040EA41100CE000BFF068216A20F478705B
:10E0C00040EA411028E000BF22F4782040EAC13045
:10E0D000E860FFF729FB59F8741C4AF6A83201F0F2
:10E0E0000F01C0F60402515C40F2680220FA01F10F
:10E0F00040F20800C2F200000068C2F200021160A3
:10E10000FDF728FE002840F02A81FFF7A8BB00BFDA
:10E1100022F4782040EAC130F060FFF7A0BB00BFD6
:10E12000D9F85C00000600F1ED80B8F1000F3FF572
:10E1300051ACD9F8000020F00400C9F80000FFF746
:10E1400049BC00BFB6F1005F40F20C8100287FF4AB
:10E150000FAFB6F1405F98BF012109E7B6F1005F4C
:10E1600040F20A8100287FF481AFB6F1405F98BF8A
:10E1700001217BE7A069D9F85C1021F080510843A8
:10E18000C9F85C00D9F85C0040F08060C9F85C0018
:10E19000FDF7F8FA054600BFD9F85C00000107D486
:10E1A000FDF7F0FA401B05284FF00300F4D9D6E044
:10E1B000B8F1000F3FF50AACD9F8000020F00400D8
:10E1C000C9F80000FFF702BCD9F800005FEA407C04
:10E1D0000BD4D9F8001041F00401C9F80010D9F8A7
:10E1E000001001F00401009100994FF60C48CFF6A1
:10E1F000FF7857F808E057F808304FF6037623F415
:10E20000802347F8083059F86C3CD4E91102B34335
:10E21000D4E90F656FF0FF013343184301EB05218B
:10E220004FF47E43084349F86C0C59F8600C002108
:10E23000C8F280010840511EE26C4FF4FE0503EB6A
:10E240004222236D6FF35F2105EB0343656D92B2AC
:10E250004FF0FE4606EB0565084403F4FE03104448
:10E2600005F0FE451844284449F8600C59F86C0C38
:10E2700020F0100049F86C0CE06DC00049F85C0C0F
:10E2800059F86C0C40F0100049F86C0C59F86C0C03
:10E29000A16D20F00C0008435FEA4E3149F86C0C88
:10E2A00005D557F8080040F4802047F80800BCF175
:10E2B000000F05D4D9F8000020F00400C9F80000D0
:10E2C000386840F080703860FDF75CFA04463868C2
:10E2D00080015BD4FDF756FA001B02284FF00300C3
:10E2E000F5D93CE059F86C0C4FF6FC71CFF6F8719B
:10E2F00008404FE0F868216A20F4787040EA411045
:10E300001AE000BFD9F85C0041F2883620F08000A6
:10E31000C9F85C00D9F85C0000057FF506AFFDF791
:10E3200031FA401BB0424FF00300F3D917E000BFB1
:10E3300022F4782040EAC130F860386840F01000DC
:10E340003860FDF71FFA0546386880063FF54EAB8A
:10E35000FDF718FA401B02284FF00300F4D901B072
:10E36000BDE8F083B6F1805F1AD10221B0F5803F9D
:10E3700008BF0121FCE500BFB6F1805F12D1022188
:10E38000B0F5803F08BF012170E600BF59F86C0C62
:10E3900040F4802049F86C0C002001B0BDE8F08307
:10E3A0000121E5E5012161E690F88920012A1DD1CE
:10E3B00090F88820012A4FF0020218D080F88920B6
:10E3C0000268136823F001031360D1E900C3896870
:10E3D00003F4702343EA0C031943D16101210022A5
:10E3E00080F8891080F88820104670470122104676
:10E3F00070470000002804BF012070472DE9F0435A
:10E4000081B0016842F2000C41F08054C5F2006C0A
:10E4100000226445826203D1C2680F2A01D92CE030
:10E42000C268C46B012303EB54130832D20803FB08
:10E4300002F242F20003C4F20063994201D0614546
:10E4400001D1082A19D843F60003C4F20003994207
:10E4500011D043F20003C4F2010399420BD043F2FE
:10E460000003C5F20103994205D043F60003C5F24B
:10E470000003994206D1102A04D9012001B0BDE859
:10E48000F08300BF90F8891031B9002180F888101E
:10E49000044600F07FF82046022180F88910D0E978
:10E4A0000019D0F818E00B68BEF1806F23F001036B
:10E4B0000B608B6803F4F81C10D1B9F1000F05D084
:10E4C000B9F5800F0AD1836B73B903E0836BB3F1A5
:10E4D000805F06D10B6843F480530B605FEA4923E9
:10E4E00002D44FF001080DE0C368072B08D30C6875
:10E4F000056D24F480742C430C604FF0000806E096
:10E500004FF000080B6823F480730B60C368C66982
:10E51000876AC46B46EA0C06374327433B4385684A
:10E52000D0E904628B60D0E90D34476AB8F1000F7E
:10E5300043EA070343EA0403D0E9124743EA060328
:10E54000066A42EA030242EA060242EA070242EA95
:10E550000502836D42EA0402C76D42EA0302036EBC
:10E5600042EA070242EA030242EA0E0242EA0902D2
:10E57000CA6005D1CA68436D22F000421A43CA60DE
:10E580000021C0F88C10012180F88910002001B012
:10E59000BDE8F083B0B5B8B0044602A80025083045
:10E5A000B8213795CDE93555CDE93355FBF7BAFE9E
:10E5B000206843F20001C4F20101884202D038B061
:10E5C000B0BD00BF4FF4000002904FF480102E90B9
:10E5D00002A80395FEF7B4FB002818BFFCF788FCDF
:10E5E00040F68C40C4F20260816941F4805181613F
:10E5F000816901F4805101910199016841F00101A3
:10E600000160006833A900F0010001900198E0204A
:10E61000339002203490002035900320369005205E
:10E6200037900020C4F20220FCF784FF38B0B0BD60
:10E630002DE9F047D0F800901D46174604460E46D7
:10E64000FDF7A0F894F8891001290DD18046002E1D
:10E650004FF0010018BF002F02D1BDE8F08700BFC6
:10E6600094F88800012803D10220BDE8F08700BF9C
:10E6700001210320002284F8881084F88900C4F85E
:10E680008C206666A4F86870A4F86A70E266A4F844
:10E690007020A4F87220A068A267B0F5C02F20688F
:10E6A000E26705D1016841F40061016004E000BF48
:10E6B000C26861F35242C26041684FF6FF729143F3
:10E6C00039444160016841F001010160C16989027A
:10E6D00007D46168B1F5800F03D1016841F400717E
:10E6E0000160E168102911D343F2FF71C5F2000106
:10E6F000884257DC43F60001C4F2000188425DD035
:10E7000043F20001C4F2010156E000BF072900F204
:10E71000A180B4F86A00002800F0CE804FF6FE70A9
:10E720006E1CA0F1020A471C10E000BF616E51F898
:10E73000042B026250466166B4F86A100844A4F8DB
:10E740006A00B4F86A00002800F0B68020684169C9
:10E75000890709D4FDF716F8002EF2D0A0EB0800C7
:10E76000A842EED34AE000BFB4F86A10042902D3ED
:10E77000E16B4129DAD2B4F86A1001290AD9E26BB7
:10E78000616E42B131F8020BA9F820004FF6FE701D
:10E79000D1E700BF616E097880F82010606E411CDF
:10E7A0003846C8E743F20001C5F20101884205D0AE
:10E7B00043F60001C5F2000188424BD1B4F86A006B
:10E7C000002879D0681C0FD130E000BF616E51F88D
:10E7D000042B02626166B4F86A000138A4F86A008A
:10E7E000B4F86A00002867D0206841698907EDD431
:10E7F000FCF7C8FFA0EB0800A842F1D3204603F0C5
:10E80000EBFFD4F88C0040F48070C4F88C00012039
:10E8100084F88900002084F888000320BDE8F08790
:10E82000FCF7B0FFB4F86A00002845D020684169C1
:10E830008907F5D5616E51F8042B02626166B4F860
:10E840006A000138A4F86A00B4F86A000028EDD123
:10E8500032E000BFB4F86A0070B34FF6FE706E1C71
:10E86000471C10E0E26B606EFAB150F8042B0A62AC
:10E870004FF6FE716066B4F86A000844A4F86A00B6
:10E88000B4F86A00C0B121684869800708D4FCF771
:10E8900079FF002EF4D0A0EB0800A842F0D3ADE73A
:10E8A000B4F86A000128DDD8606E30F8021BA9F8C0
:10E8B00020103946DEE700BF681C13D0206840698D
:10E8C000000713D4FCF75EFFA0EB0800A842F5D3C5
:10E8D000D4F88C0040F02000C4F88C0006E000BFA3
:10E8E000FCF750FF206840690007F9D5204603F087
:10E8F00073FF012084F88900002084F88800D4F890
:10E900008C00002818BF0120BDE8F087042888BFCC
:10E910007047DFE800F0031B13352D004EF21000A6
:10E92000CEF20000016821F00401016040F6E040F1
:10E93000C4F20260016821F4400120E04EF21000B0
:10E94000CEF200000168022206E000BF4EF2100085
:10E95000CEF200000168012221F00401016040F6BE
:10E96000E040C4F20260016862F3975107E000BF23
:10E970004EF21000CEF20000016841F00401016087
:10E9800070470000704700007047000070470000AB
:10E9900070470000704700007047000090F83C206E
:10E9A000012A4FF0020200F0A68010B580F83D2049
:10E9B000026842F6FF33D2F804E0D2F808C0C5F28C
:10E9C00001039A420CDC42F60043C4F201039A426E
:10E9D00012D043F20043C4F201039A420CD010E07B
:10E9E00043F20043C5F201039A4205D042F60043C8
:10E9F000C5F201039A4204D14C682EF4700344EA34
:10EA0000030E4FF68F73CFF6FF530C6803EA0E0325
:10EA10002343B2F1A04F536016DA40F6FF33C4F23D
:10EA200000039A4226DD43F2FF33C4F201039A4207
:10EA30003CDC40F60043C4F200039A424ED042F65A
:10EA40000043C4F2010347E040F6FF33C5F2000380
:10EA50009A421DDD43F2FF33C5F201039A4231DCD5
:10EA600040F60043C5F200039A4237D042F6004315
:10EA700030E000BFB2F1804F30D040F20043C4F22A
:10EA800000039A422AD040F60003C4F2000323E0B8
:10EA9000B2F1A04F22D040F20043C5F200039A42E7
:10EAA0001CD040F60003C5F2000315E043F200431A
:10EAB000C4F201039A4211D044F20003C4F20103EC
:10EAC0000AE000BF44F20003C5F201039A4205D0F8
:10EAD00043F20043C5F201039A4204D189682CF045
:10EAE0008003194391600121002280F83D1080F8D5
:10EAF0003C20BDE810401046704700007047000001
:10EB0000002804BF0120704710B5044690F83D006E
:10EB100028B9002084F83C00204600F023F80220A9
:10EB200084F83D002068211D03F00CFF012084F8CB
:10EB3000480084F83E0084F83F0084F8400084F8E0
:10EB4000410084F8420084F8430084F8440084F8CB
:10EB5000450084F8460084F8470084F83D00002012
:10EB600010BD0000006841F20001C4F200018842BB
:10EB700018BF704780B582B040F69C40C4F2026076
:10EB80000168002241F0100101600068052100F0D9
:10EB90001000019001983120FDF756F9312002B0A4
:10EBA000BDE88040FDF73EB990F83D10012921D124
:10EBB000022180F83D100168C868B1F1A04F40F013
:10EBC0000100C86018DA40F6FF30C4F2000081424C
:10EBD00028DD43F2FF30C4F2010081423EDC40F602
:10EBE0000040C4F20000814250D042F60040C4F21E
:10EBF000010049E00120704740F6FF30C5F20000F7
:10EC000081421DDD43F2FF30C5F20100814231DC5B
:10EC100040F60040C5F20000814237D042F6004085
:10EC200030E000BFB1F1804F30D040F20040C4F27C
:10EC3000000081422AD040F60000C4F2000023E028
:10EC4000B1F1A04F22D040F20040C5F20000814255
:10EC50001CD040F60000C5F2000015E043F2004071
:10EC6000C4F20100814211D044F20000C4F201005C
:10EC70000AE000BF44F20000C5F20100814205D065
:10EC800043F20040C5F2010081420DD1886807229D
:10EC9000C0F201020240062A4FF0000018BFB2F590
:10ECA000803F01D1704700BF086840F00100086054
:10ECB0000020704770470000F0B581B0044600683E
:10ECC000C5680669B10717D515F0020114D06FF0B9
:10ECD00002010161012121778069800704D020466B
:10ECE000FFF7E8FF06E000BF204600F0CBF8204623
:10ECF00000F0CAF800202077700719D515F004003D
:10ED000016D020686FF0040101610221217780692B
:10ED100010F4407F04D02046FFF7CCFF06E000BF90
:10ED2000204600F0AFF8204600F0AEF80020207733
:10ED3000300717D515F0080014D020686FF00801CF
:10ED4000016104212177C069800703D02046FFF7C5
:10ED5000B1FF05E0204600F095F8204600F094F859
:10ED600000202077F00619D515F0100016D0206885
:10ED70006FF01001016108212177C06910F4407F14
:10ED800004D02046FFF796FF06E000BF204600F0C3
:10ED900079F8204600F078F800202077F00718BFB7
:10EDA00015F0010006D020686FF0010101612046D6
:10EDB00000F06CF816F4025F05F0800718BF002F12
:10EDC00002D1F00509D410E020686FF4025101610E
:10EDD0002046FFF7D9FDF00507D537B120686FF45D
:10EDE000807101612046FFF7CDFD700609D515F051
:10EDF000400006D020686FF040010161204600F01D
:10EE00005BF8B00609D515F0200006D020686FF039
:10EE1000200101612046FFF7B9FDF00209D515F484
:10EE2000801006D020686FF4801101612046FFF742
:10EE3000B1FDB00209D515F4001006D020686FF4BA
:10EE4000001101612046FFF7A3FD700209D515F4FA
:10EE5000800006D020686FF4800101612046FFF732
:10EE60009BFD30020CD515F4000009D021686FF429
:10EE7000000220460A6101B0BDE8F040FFF73EBE47
:10EE800001B0F0BD7047000070470000B0B5044607
:10EE9000006841F20005C4F20005A84203D1012038
:10EEA0002FF02CFC206805F58E31884218BFB0BDCC
:10EEB000BDE8B040FCF712BF7047000090F8841026
:10EEC000012904BF022070472421C0F8881001687E
:10EED0000A680B6822F0005223F001030B60002344
:10EEE00043660A602021C0F8881080F88430002032
:10EEF00070470000D0F88C30202B1CBF02207047D8
:10EF000010B5044600294FF0010018BF002A01D1B6
:10EF100010BD00BF206883685B0603D5836823F0BB
:10EF2000400383600120E06600202067204604F053
:10EF300069FDE16E0120012918BF10BD2068102174
:10EF4000016200BF206850E8000F216840F0100007
:10EF500041E80002DAB1206850E8000F216840F073
:10EF6000100041E8000292B1206850E8000F2168CB
:10EF700040F0100041E800024AB1206850E8000F5C
:10EF8000216840F0100041E80002002ADAD1002098
:10EF900010BD0000006844F60002C4F20002904276
:10EFA0000A4613D045F20001C4F20001884209D09C
:10EFB00043F60001C4F20101884204BF104602F08A
:10EFC000CFBE7047104602F091B900BF80B582B045
:10EFD0000020019062B140F2D000C2F2000000684F
:10EFE00030B140F6D07101ABC2F200013AF078FDC9
:10EFF00041F2404040F6D071C2F20000C2F200017E
:10F000004FF40072FFF776FF019830B14EF60450CE
:10F01000CEF200004FF08051016002B0BDE88040A8
:10F02000704700007047000090F88420012A04BF58
:10F0300002207047B0B52422C0F888200268D0F8BA
:10F0400064E0D2F800C01368BEF1000F23F00103A2
:10F050001360936823F0606341EA0301916019D063
:10F06000936891684AF6486E490FC0F6040E4AF656
:10F0700050651EF80140C0F60405C3F34263695CA5
:10F08000E400B4FBF1F11EF80340EB5CE500B5FBD6
:10F09000F3F301E001210123A0F86A102021A0F878
:10F0A0006830C2F800C0C0F88810002180F88410D1
:10F0B0000020B0BD90F88420012A04BF02207047D0
:10F0C000B0B52422C0F888200268D0F864E0D2F8F5
:10F0D00000C01368BEF1000F23F0010313609368B2
:10F0E00023F0604341EA0301916019D0936891686D
:10F0F0004AF6486E490FC0F6040E4AF650651EF8EF
:10F100000140C0F60405C3F34263695CE400B4FB4C
:10F11000F1F11EF80340EB5CE500B5FBF3F301E011
:10F1200001210123A0F86A102021A0F86830C2F85C
:10F1300000C0C0F88810002180F884100020B0BD05
:10F1400070470000006844F60001C4F200018842E4
:10F1500024D043F60001C4F20101884212D045F2E6
:10F160000001C4F20001884218BF704741F2D44048
:10F1700040F2CC71C2F20000C2F200014FF4006212
:10F18000FFF7B8BE41F2AC3040F2B551C2F2000018
:10F19000C2F200018022FFF7ADBE00BF41F2404045
:10F1A00040F6D071C2F20000C2F200014FF40072CA
:10F1B000FFF7A0BE70B5026840F62F04D36911684E
:10F1C00096681C40202C0BD101F0200406F08055DD
:10F1D0002D1916D0416F61B3BDE87040084700BFDC
:10F1E00040F60F052B420CD00125C1F2000506EABE
:10F1F000050C40F22015C0F200450D4015EB0C0542
:10F2000056D1C46EDD0615D5012C13D111F01005B1
:10F2100010D0102111629168490655D4B0F85C10E5
:10F22000B0F85E20B0F85E30002B18BF914240F07D
:10F230000B8270BD1A0606D501F0800206F40006A6
:10F24000921940F0F3805A0640F1D88011F0400244
:10F2500000F0D480016851E8001F026821F04001ED
:10F2600042E80013DBB1016851E8001F026821F099
:10F27000400142E8001393B1016851E8001F0268A1
:10F2800021F0400142E800134BB1016851E8001F32
:10F29000026821F0400142E80013002BDAD120215E
:10F2A000C0F8881000218167BDE8704000F02EBCD6
:10F2B000DD0718BF11F4807540F0CC809D0706F083
:10F2C000010E00F1D380DCE0D0F8802011688B6C57
:10F2D000B0F85C4099B2002900F09A80A14280F019
:10F2E0009780A0F85E30116D81297BD0016851E8CC
:10F2F000001F026821F4807142E80013BBB301686B
:10F3000051E8001F026821F4807142E8001373B3D2
:10F31000016851E8001F026821F4807142E800137F
:10F320002BB3016851E8001F026821F4807142E8A4
:10F330000013002BDAD11AE0016851E8021F0268BD
:10F3400021F0010142E80213DBB1016851E8021F1C
:10F35000026821F0010142E8021393B1016851E80B
:10F36000021F026821F0010142E802134BB101685B
:10F3700051E8021F026821F0010142E80213002B4C
:10F38000DAD12021C0F88C100021C166016851E853
:10F39000001F026821F0100142E80013DBB1016890
:10F3A00051E8001F026821F0100142E8001393B1F8
:10F3B000016851E8001F026821F0100142E80013C3
:10F3C0004BB1016851E8001F026821F0100142E8CA
:10F3D0000013002BDAD1D0F8801004460846FBF762
:10F3E000A3FE204602210167B0F85C10B0F85E2051
:10F3F000891A89B2BDE87040FFF7CCBD1A021DD54D
:10F4000011F080421AD0BDE87040FFF799BE00BFEE
:10F410008C427FF40EAF126D812A7FF40AAF022274
:10F420000267BDE87040FFF7B5BD00BF816F0029DE
:10F430003FF4FFAEBDE87040084700BFDA017FF53A
:10F44000F8AEB1F1FF3FC8BF70BDBDE87040FFF737
:10F45000E9BD00BF01251562D0F8905045F00105C7
:10F46000C0F890509D0706F0010E0AD5BEF1000FBE
:10F4700007D002241462D0F8904044F00404C0F88D
:10F4800090405C070AD5BEF1000F07D00425156235
:10F49000D0F8905045F00205C0F890501D070CD5EB
:10F4A00001F0200555EA0C0507D008251562D0F8B3
:10F4B000905045F00805C0F890501D050BD511F08F
:10F4C000806508D04FF400651562D0F8905045F083
:10F4D0002005C0F89050D0F89050002D3FF4A9AE10
:10F4E0009B060BD501F0200106F08053C91805D00A
:10F4F000416F19B10446884722682046D0F8901021
:10F50000926801F0280102F04002891806D10446F1
:10F51000FFF718FE0020C4F8900070BD016851E8A4
:10F52000001F026821F4907142E80013DBB101680A
:10F5300051E8001F026821F4907142E8001393B172
:10F54000016851E8001F026821F4907142E800133D
:10F550004BB1016851E8001F026821F4907142E844
:10F560000013002BDAD14FF6FE71CEF6FF7100BF0B
:10F57000026852E8022F03680A4043E80226C6B137
:10F58000026852E8022F03680A4043E8022686B167
:10F59000026852E8022F03680A4043E8022646B197
:10F5A000026852E8022F03680A4043E80226002E50
:10F5B000DED1C16E012924D1016851E8001F026823
:10F5C00021F0100142E80013DBB1016851E8001F8F
:10F5D000026821F0100142E8001393B1016851E87C
:10F5E000001F026821F0100142E800134BB10168CE
:10F5F00051E8001F026821F0100142E80013002BBF
:10F60000DAD12021C0F88C100021C1660268416760
:10F610009168490640F19880D0F88010002900F0E8
:10F62000938042F62562C0F6010204460846CA6687
:10F63000FBF7CEFD00283FF4FCADD4F88000C16E8E
:10F64000BDE87040084700BF891A00BF026852E851
:10F65000002F036822F4907243E80026DEB10268AE
:10F6600052E8002F036822F4907243E8002696B116
:10F67000026852E8002F036822F4907243E80026E3
:10F680004EB1026852E8002F036822F4907243E8FA
:10F690000026002EDAD14FF6FE72CEF6FF7200BFC2
:10F6A000036853E8023F0668134046E80235C5B1D7
:10F6B000036853E8023F0668134046E8023585B107
:10F6C000036853E8023F0668134046E8023545B137
:10F6D000036853E8023F0668134046E80235002DF0
:10F6E000DED12022C0F88C200022C266426700BF13
:10F6F000026852E8002F036822F0100243E8002657
:10F70000DEB1026852E8002F036822F0100243E8DD
:10F71000002696B1026852E8002F036822F010021A
:10F7200043E800264EB1026852E8002F036822F039
:10F73000100243E80026002EDAD1022289B20267C5
:10F74000BDE87040FFF726BCBDE87040FFF7FABC8B
:10F7500010B5D8B10446D0F8880028B9002084F844
:10F760008400204600F026F82420C4F88800206891
:10F77000A16A0268002922F0010202601CBF204633
:10F7800003F026FA204604F037F808B1012010BD36
:10F790002168486820F490404860886820F02A007A
:10F7A0008860086840F0010220460A60BDE8104009
:10F7B00003F082BAF0B5B7B00446002502A8C02114
:10F7C0003695CDE93455CDE93255FAF7ABFD2068D1
:10F7D00044F60001C4F20001884200F0858043F63F
:10F7E0000001C4F2010188424CD045F20001C4F28C
:10F7F0000001884240F0B28010200025029002A84B
:10F800000395FDF79DFA002818BFFBF771FB40F642
:10F810008C40C4F20260016940F6000441F480119A
:10F8200001610169C4F2022401F48011019101997E
:10F830000168022641F0040101600168082701F017
:10F84000040101910199016841F00801016000681B
:10F8500032A900F00800019001984FF480503290D6
:10F860002046CDE9336535953697FBF763FE0420D6
:10F87000CDE93206CDE93455369704F58060412450
:10F8800061E000BF01200024029002A80394FDF76C
:10F8900057FA002818BFFBF72BFB40F68C40C4F248
:10F8A0000260816941F480418161816901F4804194
:10F8B00001910199016841F001010160006800F0C7
:10F8C0000100019001984FF4C06032900220CDE910
:10F8D00033040720369040F60000C4F2022035942D
:10F8E000A0F500603D242EE00420029002A80395BC
:10F8F000FDF726FA002818BFFBF7FAFA40F68C400D
:10F90000C4F2026001693F2441F480210161016970
:10F9100001F4802101910199016841F00401016025
:10F92000006800F00400019001984FF48460329068
:10F93000022033900020CDE934000720369040F6B5
:10F940000000C4F2022032A9FBF7F4FD2046052195
:10F950000022FCF779FA2046FCF764FA37B0F0BDD4
:10F96000704700002DE9F0410446D0F888002028B7
:10F970001CBF0220BDE8F08100294FF0010018BF34
:10F98000002A01D1BDE8F0812068884681681D46C3
:10F990001646090603D5816821F0800181600020A8
:10F9A000C4F890002120C4F88800FBF7EBFEA4F80F
:10F9B0005460A4F85660A1680646B1F5805F02D194
:10F9C0002069002864D047460020B4F856202168FA
:10F9D000002A65D06A1C26D0002D51D0804600BF79
:10F9E000C869000608D4FBF7CDFE801BA84200F2D0
:10F9F000818021680868F3E717B117F8010B04E06C
:10FA000038F8020B00276FF35F208862B4F85600C5
:10FA10000138A4F85600B4F856000028E0D13FE0C1
:10FA2000CA69120609D4CA69120606D4CA6912063E
:10FA30005CBFCA695FEA0262F2D51FB117F8012BF9
:10FA400005E000BF30F8022B00276FF35F228A62C7
:10FA5000B4F85620013AA4F85620B4F85620002AEB
:10FA6000E1D11DE030F8022B00276FF35F228A629C
:10FA7000B4F85620013AA4F85620B4F856207AB1CA
:10FA8000CA69120634D5002FECD017F8012BEEE727
:10FA900000274046B4F856202168002A7FF49AAF28
:10FAA000C86940061ED41DB3681C14D1C86940063D
:10FAB00026D4C869400623D4C869400620D4C86942
:10FAC00040064FF00000F1D50DE000BF206801684E
:10FAD000C069400614D4FBF755FE801BA842F5D937
